:101413004572726F7200483A20252E3166252500E9
:0A142300543A20252E3166004300E4
:10145F00758901758CB8758A0CD28C308DFDC28C54
:03146F00C28D2209
:10147200758901758CFF758AF1D28C308DFDC28C15
:03148200C28D22F6
:08149B00C2A112145FD2A122CC
:0A14910020A1FD30A1FD20A1FD22E5
:1013C200E4FFFEFDFC30A1FD121472EF25E0FFEEFA
:1013D20033FE30A106EF4401FF800020A1FD0DBDC8
:0913E20000010CED64084C70DC04
:0113EB0022DF
:1011E40012136B12149B1214911213C28E108F11CE
:1011F4001213C28E0C8F0D1213C28E0E8F0F121388
:10120400C28E0A8F0B1213C28E088F09E511250DA9
:10121400FFE510350CFEE50F2FFFE50E3EFEE50B56
:101224002FFFE50A3EFEEF65097003EE6508600FC7
:101234007BFF7A147913E4FDFF12133D0212F2E5E9
:1012440011450CFCE50DFDE41208B6E4FBFA792027
:1012540078411208038F3D8E3C8D3B8C3AE50F4557
:101264000AFCE50BFDE41208B6E4FBFA79207841A8
:101274001208038F398E388D378C36E50F30E70B23
:101284001208A08F398E388D378C367541FF754220
:1012940014754319853D47853C46853B45853A444D
:1012A4007B007A007922120DD17B007A007922E446
:1012B400FDFF12133D7541FF7542147543238539B3
:1012C400478538468537458536447B007A00792240
:1012D400120DD17B007A007922E4FD7F0112133DC7
:1012E4007FDF1214467BFF7A14792B1213977F64E5
:0812F4007E0012131D0211E738
:1012FC00C291D2927F017E0012131DC2920F121363
:10130C001DE9C454F0FFE590540F4FF590D2927F35
:01131C0001CF
:10131D00E4FDFCC3ED9FEC9E5015E4FBFA0BBB0006
:0F132D00010AEB64704A70F50DBD00010C80E4FD
:01133C00228E
:10142D00A907E954F0FFE590540F4FF590C29012C3
:09143D0012FCC2927F0502131D8E
:10144600A907E954F0FFE590540F4FF590D290129A
:0914560012FCC2927F0502131D75
:061397008B438A448945E6
:10139D00E4F546F547AB43AA44A945854782854602
:1013AD0083120CF2FF600D1214460547E54770E5F8
:0413BD00054680E180
:0113C1002209
:10133D008F3E8D3F8B408A418942E53E7008E53FE7
:10134D00540F4480800BE53EB4010AE53F540F4431
:0E135D00C0FF12142DAB40AA41A94202139703
:10136B007F147E0012131D7F0212142D7F2812147E
:10137B002D7F0C12142D7F0612142D7F0112142DAC
:0C138B007F037E0012131D7F8002142DD2
:1008000002092EEC5D046005E85904700302092416
:100810001208EF580460F6EC4860F2EC7004FDFE3C
:10082000FF22C860DB2481C85009C39860025006CB
:1008300002092B9850CAF582E9294B4A7005AB8210
:1008400002091A75F0007C1A7880C3EF9BEE9AEDCE
:1008500099400DC3EF9BFFEE9AFEED99FDE842F043
:10086000DC23ACF0D0E0FFD0E0FED0E0FDAB822096
:10087000E7101BEB60BAEC2CFCEF33FFEE33FEED20
:1008800033FD020906E803F830E705C0F075F00013
:10089000EF2FFFEE33FEED33FD40B830E7C280AA04
:1008A000ED33EC33600A047003BD8004ECB2E7FC66
:0108B0002225
:1008B10075F020800E75F010800575F0087D007EC2
:1008C100007F003392D530D503120D31EC33401047
:1008D100EF33FFEE33FEED33FDEC33FCD5F0ED22CB
:0E08E100E5F0247EA2D513CC92E7CDCEFF2207
:100D7500E5552441F8E6055522783E3007027841CD
:100D8500E475F001120D3F020CD92000EB7F2ED245
:100D9500008018EF540F2490D43440D4FF30040B56
:100DA500EF24BFB41A0050032461FFE55660021515
:100DB500560559E5597002055830070D783EE4751A
:100DC500F001120D3FEF020D1F0213EC7403D20761
:100DD5008003E4C207F5558B3E8A3F8940E4F5560A
:100DE500F558F559E55660077F20120DB080F57569
:100DF50057FFC201C200C202C203C205C206C20831
:100E0500120D7EFF700D3007057F00120DC1AF5921
:100E1500AE5822B4255FC2D5C204120D7EFF24D080
:100E2500B40A00501A75F00A785630D50508B6FF91
:100E35000106C6A426F620D5047002D20380D92463
:100E4500CFB41A00EF5004C2E5D2040210AED201AD
:100E550080C6D20080C0D20280BCD2D580BAD2056D
:100E650080B47F20120DB02002077401B5560040F2
:100E7500F1120D75FF120DB0020DE9D208D20680F0
:100E850095120D75FB120D75FA120D75F94A4B7019
:100E95000679A57A117BFF20022EE556602A7E0091
:100EA5008E82758300120CF260060EEE655770F0A7
:100EB500C2D5EBC0E0EAC0E0E9C0E0EE12110ED009
:100EC500E0F9D0E0FAD0E0FB120CD9FF60AAEBC044
:100ED500E0EAC0E0E9C0E0120DB0D0E02401F9D0AD
:100EE500E03400FAD0E0FBE5570460DCD557D98043
:100EF50087D20280A21210F160F7E5577001041243
:100F05000939A957600DE557600914F5571211986D
:100F1500EF60F3EA30E702F404C3995077EAF42569
:100F2500570430E701E404F557800D1210F160C154
:100F3500EA05572557120939EA7854F630E701E4EE
:100F4500255704D557042005011412110EE4C0E0FD
:100F55001211987854E6601320E70714F6120D98DD
:100F6500802204F6D0E014C0E07F00120D98E5570A
:100F75006007120D8F1557800B300503120D8FD0AA
:100F8500E0020DE9D0E00480C51210F160A0E5573C
:100F9500041209397854EAF6E55720050260010480
:050FA500240412110EEE
:100FAA0074FF04C0E0121198120D98E5572005024B
:100FBA006003120D8FD0E0B557E87F45120DA27875
:100FCA0054E67F2B30E7047F2DF404C0E0120DB005
:100FDA00D0E075F00A84C0F0120D99D0E0120D9994
:100FEA00020DE9791080027908C206C2088008D287
:100FFA00D5790A8004790AC2D5E557047002F557F3
:10100A00E4FAFDFEFF120D75FC7B08200113120D98
:10101A0075FD7B1030000A120D75FE120D75FF7BEF
:10102A0020EC3382D592D55013C3E43000069FFFDB
:10103A00E49EFEE42001039DFDE49CFCE4CBF8C29F
:10104A0001EC700CCFCECDCCE824F8F870F3801701
:10105A00C3EF33FFEE33FEED33FDEC33FCEB33FB32
:10106A00994002FB0FD8E9EB300105F8D0E0C448FB
:10107A00B201C0E00AEC4D4E4F78207B0070C2EA04
:10108A00B5570040BCC0E0121110D0F0D0E02001EA
:10109A0004C4C0E0C4B201C0F0120D99D0F0D5F07A
:1010AA00EB020DE9120D4F0E86530FED580E574CF9
:1010BA000E53420FF14F0FF9440FF9490E6C430FCB
:1010CA00FF550F30460F8E450EFA4711C5500E5B7D
:1010DA002D0E5F2E0E822B0E63230E802011AE2A58
:1010EA000E1B4800000E7AE557B4FF037557061227
:1010FA000D75FC120D75FD120D75FE120D75FF783A
:10110A004D020968790AA2D5200314300509B910DD
:10111A00020404B9080104A2D520060250010420E1
:10112A0002689202B556005034C0E07F203003199D
:10113A007F30A20272067205500F121167C202C2F4
:10114A0006C205C2087F30800F300503E9C0E012ED
:10115A000DB0300503D0E0F9D0E0B556CC30051714
:10116A007F30B9100C120DB07F583004077F788099
:10117A0003B90803120DB03002057F2D020DB07FAE
:10118A00202008F87F2B2006F322920280CF7F00CE
:10119A00B407005005244DF8E6FF22286E756C6CE2
:1011AA002900D201120D753001F8C201785630D5E6
:1011BA000108F6020E1B2D50434958120D752403DF
:1011CA00B405004001E49011C093120DA1743A12C3
:0A11DA000DA1D203755604020FEDBB
:1008EF00E9D2E7C933E833F892D5EDD2E7CD33EC4F
:0708FF0033FC5002B2D522C8
:10090600EC30E7100FBF000C0EBE00080DBD000452
:100916000BEB6014A2D5EB13FCED92E7FD2274FFFE
:10092600FCFDFEFF22E480F8A2D574FF13FC7D8057
:03093600E480EF6B
:10093900F920E72824F950037907E4F42402FB1885
:10094900DBFDE624FB5014E9600DE4F618E604F635
:0F095900B40A08E4F6D9F57401F60A22C2D522D1
:10096800ED33EC3392D5FA602AB4FF33EDC2E77B5E
:10097800FF60067A09798DE4227A09799620D504F0
:100988007A097991224E614E002B494E46002D4935
:100998004E4600E47A08F608DAFC7B00740722E881
:1009A800C0E0ECC0E0EDC0E0EEC0E0EFC0E0EA750A
:1009B800F010A4CAABF075F04DA42BFBE435F0FCA5
:1009C800EA2410FAEB34C5FBEC34D9FCEDC2E7FF9E
:1009D80075F056A4F42411C5F0F434C58FF0A42A98
:1009E800E5F03BE43CF620E714120C99D0E0FFD088
:1009F800E0FED0E0FDD0E0FC1208038014F40412FD
:100A08000C99D0E0FFD0E0FED0E0FDD0E0FC120B66
:100A180063D0E0F8E6FAEDD2E7CD33EC332482FB7D
:100A2800E4C3CF33CFCE33CECD33CD33DBF37B0727
:100A380075F00A846004F6081B0AE5F0F6088FF0E2
:100A4800740AA4FFACF08EF0740AA42CFEACF0502B
:100A5800010C8DF0740AA42CFDE435F0F608DBDEF9
:030A6800740722EE
:100A6B00020924E86480F8E933E83360110460F08C
:100A7B00ED33EC337009E8FCE9FDEAFEEBFF2204F1
:100A8B0060DED3EB9FEA9EE99DE8C2E78CF0C2F7EC
:100A9B0095F0400CE8CCF8E9CDF9EACEFAEBCFFBB8
:100AAB001208EF85D0F05804700320D5B3E804701A
:100ABB00075002B2D502092E92D5EC0460F7E4CCB4
:100ACB00C0E0C398F8603B94186008400DD0E0FB81
:100ADB00020906E4FBFAC9FC8028E830E406E4C905
:100AEB00FBE4CAFCE830E305E4C9CACBFCE85407D5
:100AFB006010F8C3E913F9EA13FAEB13FBEC13FCE0
:100B0B00D8F130F52FC3E49CFCEF9BFFEE9AFEED82
:100B1B0099FDD0E0FBEF4E4D4C701222DB03020926
:100B2B002BEC2CFCEF33FFEE33FEED33FDED30E71A
:100B3B00EB020906EF2BFFEE3AFEED39FDD0E0FBA1
:100B4B0050130BBB000302092EED13FDEE13FEEF4A
:080B5B0013FFEC13FC02090674
:100B6300EC4D6011E8497017ED33EC3304600DE48C
:100B7300FCFFFEFD22E933E8330470F80209241276
:100B830008EF58046009E4CC248150062850090278
:100B9300092E28400302092BC0E0EB4A7044B980B8
:100BA30006D0E0FB02091AEF4E701CBD8008EBFF74
:100BB300EAFEE9FD80EBE98DF0A4FEE5F0020C4CC2
:100BC300E9CDF9EAFEEBFFEF89F0A4FCE5F0CE896D
:100BD300F0A42EFFE435F0CD89F0A42DFEE435F02A
:100BE3008067EF4E7005BD80D780C3EF8BF0A4AC58
:100BF300F0EE8BF0A42CFCE435F0F8EF8AF0A42C93
:100C0300E5F038FCE433CB8DF0A42CFCE5F03BF8A5
:100C1300EE8AF0A42CFCE5F038F8E433CF89F0A495
:100C23002CFCE5F038CF3400CE89F0A42FFFE5F09B
:100C33003EFEE433C98DF0A42EFEE5F039CD8AF0F3
:100C4300A42FFFE5F03EFEE43DFD33D0E0FB50076B
:100C53000BBB000F02092EEC2CFCEF33FFEE33FE2F
:060C6300ED33FD0209065D
:100C69003F8000004120000042C80000447A000093
:100C7900461C400047C35000497424004B18968015
:100C89004CBEBC205A0E1BCA6753C21C749DC5AE0C
:100C9900FB60065407601C2323120CC7EB54386011
:100CA90009120CB3120CC2120B63ECF8EDF9EEFA4F
:100CB900EFCB22EB120CC280F1543803241C900CA8
:100CC90069FE93FC0EEE93FD0EEE930ECE93FF227A
:0300000002148562
:0C148500787FE4F6D8FD7581590211E46F
:100CD900BB010689828A83E0225002E722BBFE0219
:090CE900E32289828A83E493224C
:100CF200BB010CE58229F582E5833AF583E02250B7
:100D020006E92582F8E622BBFE06E92582F8E22200
:0D0D1200E58229F582E5833AF583E493221A
:100D1F00BB010689828A83F0225002F722BBFE01B3
:020D2F00F322AD
:0E0D3100C3E49FFFE49EFEE49DFDE49CFC22D3
:100D3F00FAE6FB0808E6F925F0F618E6CA3AF622B5
:100D4F00D083D082F8E4937012740193700DA3A333
:100D5F0093F8740193F5828883E473740293686047
:060D6F00EFA3A3A380DF47
:1013EC00EFB40A07740D1213F7740A309811A89908
:1013FC00B8130CC2983098FDA899C298B811F63061
:07140C0099FDC299F5992238
:00000001FF
